:020000040000FA
:0600000052EF10F01200A7
:020006001200E6
:060008003DEF0AF01200BA
:02000E001200DE
:02001000FEFFF1
:0400120000000000EA
:060018008AEF09F012005E
:02001E000300DD
:1000200012000000FC010000040000002521000077
:1000300080000000080000001000000088000000A0
:0400400002000000BA
:0C0044005EEC05F0FB0EDBCFF3FFDB06EB
:10005000F35000090AE0ACEC05F0FA0E17EC06F0DC
:10006000F3E1151CF1E1010E01D0000E8DEF05F05A
:100070005EEC05F03B0EE12402E3E168E652E16E3E
:10008000010EDB6A020EDB6AF90EDBCFF6FFFA0E19
:10009000DBCFF7FFFB0EDBCFF8FF0800F550DF6E7C
:1000A000DF5002E1B1EF04F0250EDF5C02E0A4EFC7
:1000B00004F0030EDB6A040EDB6A050EDB6A060E33
:1000C000DB6A070EDB6AC6EC04F02D0EDF5C0CE089
:1000D0002B0EDF5C09E0200EDF5C06E0230EDF5C08
:1000E00003E0300EDF5C1AE1DF50300A14E0130A3F
:1000F0000FE0030A0AE00B0A05E0060AE4E1030E3A
:10010000DB80E1D7030EDB82DED7030EDB84DBD797
:10011000030EDB86D8D7030EDB88D5D72A0EDF5C2B
:100120001BE1C2EC04F010EC05F010E0030EDB80E4
:1001300006680768130EDBCF0BF0140EDBCF0CF054
:1001400094EC0EF0040E04C0DBFF03D0130EF9ECA8
:1001500004F0C6EC04F00BD0090EDB6A67EC05F086
:1001600003E0DBEC05F0FAD7090EF9EC04F0030E1E
:10017000DBB0DB982E0EDF5C1BE1C6EC04F02A0E30
:10018000DF5C0BE1C2EC04F010EC05F003E1130EB0
:100190004BEC05F0C6EC04F00BD0090EDB6A67EC03
:1001A00005F003E0DBEC05F0FAD7090E4BEC05F0A7
:1001B000680EDF5C07E1C6EC04F0680EDF5C1DE151
:1001C000030E18D0740EDF5C17E07A0EDF5C14E0CB
:1001D000480EDF5C06E0540EDF5C03E05A0EDF5C85
:1001E00002E1020E07D06C0EDF5C03E06A0EDF5CFA
:1001F00004E1010E9EEC05F0C9DBDF506E0A01E15F
:100200007FD31E0A01E192D1200A01E18FD13F0A7A
:1002100001E149D11A0A01E146D10D0A01E143D1B8
:10022000200A01E140D13A0A01E13DD1200A01E171
:100230003AD1260A01E135D10D0A01E132D11A0A7B
:1002400001E1D9D0200A4AE0300A1FE0460A0EE058
:10025000250A01E083D3D950F90FE96EFF0EDA20A9
:10026000EA6E010EEE5E000EEE5AEE5AACEC05F0B0
:10027000250EE66E95DB03E1151C01E169D3A8ECC0
:1002800005F001E26BD3DB2A69D3080EDB6A040EAA
:10029000DB50010806E2040EDB0470EC05F0DB50D5
:1002A0008BDB080EDB5009E0030EDB50010B05E190
:1002B00072DB01E04DD3080EDB6A64DBEFCFDFFFBA
:1002C00020EC06F003E1151C01E142D3A8EC05F097
:1002D00001E3DB2A60DB01E141D33AD3070EDB50B7
:1002E00002080FE1ECEC05F0030EB3EC05F00E0E86
:1002F000EECFDBFF0F0EEECFDBFF100EEECFDBFFFE
:1003000020D0F70EDBCF17F0F80EDBCF18F0020E7F
:10031000175E000E185AF70E17C0DBFFF80E18C054
:10032000DBFF17C0E9FF18C0EAFFA3EC05F0166A6F
:100330000E0E14C0DBFF0F0E15C0DBFF100E16C033
:10034000DBFF0E0EDBCFE6FF0F0EDBCFE6FF100E5E
:10035000DBCFE6FF06EC0DF0E552E552E552130E59
:1003600005C0DBFF140E06C0DBFF060EDB5005E008
:10037000130EE7EC05F001E26ADB0BEC06F002E29B
:10038000130E37DBCEEC05F006E0040EE7EC05F0CB
:1003900002E2050E2EDB030EDBB005D0FCDA01E035
:1003A000D7D2080EDB6A090EDB6A0E0EDBCFF6FF32
:1003B0000F0EDBCFF7FF100EDBCFF8FF0800F55074
:1003C000DF6EDF5014E011EC06F011E220EC06F0D5
:1003D00003E1151C01E1BCD2BBDB01E3DB2A090E02
:1003E000DB2AD9500E0FE96E000ECBDBE7D7D3DA4C
:1003F00001E1B4D2ADD2C6DA110EEECFDBFF120EA0
:10040000EDCFDBFF110EDBCFE6FF120EDBCFE6FFF9
:10041000F8EC0CF0E552E552130EF3CFDBFF140EAF
:10042000F4CFDBFF060EDB5004E0130ED0DB01E25D
:100430000EDB0BEC06F002E2130EDBDAAFDB05E0BD
:10044000040EC5DB02E2050ED4DA030EDBB005D0E4
:10045000A2DA01E07DD2080EDB6A090EDB6A110E1A
:10046000DBCFE9FF120EDBCFEAFFEFCFDFFFDF507C
:1004700014E0D7DB12E2E4DB03E1151C01E168D2F2
:1004800067DB01E3DB2A090EDB2A110EDB2ADBCF57
:10049000E9FF120EE8E3DB2AE6D77DDA01E15ED25E
:1004A00057D2030EDB8E070EDB0410E195DB040E42
:1004B0005ADB0A0EEECFDBFF0B0EEECFDBFF0C0E8E
:1004C000EECFDBFF0D0EEECFDBFF6CD0070EDB5067
:1004D00003082CE1030EDBAE0DD0B2DA020E76DAA1
:1004E000EFCF14F0156A166A176A14AE39D0156882
:1004F000166835D0F70EDBCF15F0F80EDBCF16F00F
:10050000020E155E000E165AF70E15C0DBFFF80E30
:1005100016C0DBFF15C0E9FF16C0EAFFEFCF14F0ED
:100520000A0E14C0DBFF0B0EDB6A38D0070EDB505F
:10053000020809E1030EDBAE04D059DB16AE10D081
:100540000ED055DB0DD0030EDBAE12D079DA020EE1
:100550003DDAF9DA166A176A15AE02D0166817681E
:10056000E2DA0C0E16C0DBFF0D0E17C0DBFF1AD04F
:10057000F70EDBCF16F0F80EDBCF17F0020E165E8B
:10058000000E175AF70E16C0DBFFF80E17C0DBFF80
:1005900016C0E9FF17C0EAFFD6DAC5DA0C0EDB6A2F
:1005A0000D0EDB6A060EDB5005E1010EF36E050E43
:1005B000F3CFDBFF150EDB6A160EDB6AD950370F5F
:1005C000146E000EDA20156E390E14C0DBFF3A0EE1
:1005D00015C0DBFF380EDB6A080EDB6A0A0EAEDAE6
:1005E000DF50780A12E0200A10E0280A0CE0200A06
:1005F0000AE03F0A06E00D0A02E0200A08E1020EC6
:1006000005D0080E03D0080EDF26100E97DA030E71
:10061000DBBE02D0DB92DB94DB50800B24E08ADA75
:10062000D890030EEB50000A08E6000EEE5C000EB8
:10063000EE58000EEE58000EEE5815E213DA096877
:100640000A680B680C68FEEC0DF00A0E00C0DBFFB8
:100650000B0E01C0DBFF0C0E02C0DBFF0D0E03C052
:10066000DBFF2D0E08D0030EDBA202D02B0E03D031
:10067000DBA408D0200EF36E170EF3CFDBFF150EB0
:10068000DB2A02D0170EDB6A050EDB5003E1B7D977
:1006900001E189D0140E146E210E156E000E166E37
:1006A000070EDBCF17F0186A196A1A6A17C009F02B
:1006B00018C00AF019C00BF01AC00CF0D3D9C1EC65
:1006C0000EF014500024F36E15500120F46E1650F5
:1006D0000220F86EF4CFF7FFF3CFF6FF0800090E03
:1006E000F5CFDBFF580EDF5C0FE1610EF36E090EF4
:1006F0007BD90AE3200E146E090EDBCFE7FF1450FE
:10070000E75E090EE7CFDBFF070EDBCF14F0156ABB
:10071000166A176A0FDA14C009F015C00AF016C07D
:100720000BF017C00CF0EECF04F0EECF05F0EECFDB
:1007300006F0EFCF07F0C1EC0EF007C0EDFF06C0EA
:10074000EDFF05C0EDFF04C0EFFF390EDBCFE9FF81
:10075000DB063A0EDBCFEAFF01E2DB06090EDBCF58
:10076000EFFF150EDB2A4BD995E1030EDBA61DD05A
:100770006F0EDF5C06E1C1D918E3150EDB285BDAEA
:1007800014D0780EDF5C09E0580EDF5C06E0620EE4
:10079000DF5C03E0420EDF5C08E1020EF36E160E32
:1007A000F3CFDBFF02D0150EDB6A030EDB50100B1C
:1007B0000EE0040EDBCF14F0050EDB50D88014548D
:1007C00006E2060EDB5003E1040EDB5034DA95D965
:1007D0000AE2050EDBCFE7FF150EDB50E75E050EE4
:1007E000E7CFDBFF02D0050EDB6A040EDBCF14F08F
:1007F000160E45D9D880145414E2160EDBCFE6FF4E
:10080000150EDBCFE6FF040EDBCFE6FF050EDB5057
:10081000E552E75CE552D880E754E552D880E754CA
:100820005FD9030EDB50010B0BE1080EDB5008E033
:10083000B2D801E08DD0080EDB50BED8080EDB6ABE
:10084000170EDB5007E088D9170EF1D903E1151C0C
:1008500001E17ED0160EDB5016E07ED9300EE66E3A
:100860009FD802E1151C74E077D9DFCFE6FFBCEC1E
:100870000DF0E552E552E552F4CF15F00001F31CFE
:1008800002E1151C65E0050EDBCF14F0160EDB50FF
:10089000D880145409E2050EDBCFE7FF160EDB50BB
:1008A000E75E050EE7CFDBFF300EE66E050ECBD917
:1008B0004FE1390EDB2ADBCFE9FF3A0E01E3DB2AF9
:1008C000DBCFEAFF090EEFCFDBFFDB500EE044D9B0
:1008D000090EADD902E1151C3BE0390EDB2ADBCF56
:1008E000E9FF3A0EEDE3DB2AEBD755D831E1160EDE
:1008F000DBCFE6FF080EC3D8E552E7245DD82ED043
:10090000070EDB50030A1CE0010A14E0030A07E0AB
:100910007BD9DBCFEEFF020EDBCFEDFF1FD0F5D88A
:10092000196A17AE02D0186819682CD8BCD819C03B
:10093000EEFF14D0EAD817BE186824D8B4D80ED069
:1009400063D9DBCFEFFF0AD07BD905E1151C03E1AA
:10095000F368F46810D0FCD801E3DB2A79D94DEFB5
:1009600000F0010EDBCF14F0020EDBCF15F014C047
:10097000F3FF15C0F4FF3B0EE15C02E2E16AE552D1
:10098000E16ECBD029D9020EB3EF05F061D9080092
:10099000F550DF6E1200200EE66E080E23EF06F013
:1009A000BCEC0DF0E552E552E552F3CF14F0F4CF74
:1009B00015F00001F31C1200146E156AD950010FD6
:1009C0004DD91450EE261550ED221200185E000E7F
:1009D000195AF70E18C0DBFFF80E19C0DBFF18C05C
:1009E000E9FF19C0EAFF1200DBCFF4FFF350F45C1B
:1009F0001200DB50E76E040EE7CFDBFF12000A0E99
:100A0000DBCF14F00B0EDBCF15F00C0EDBCF16F0A6
:100A10000D0EDBCF17F01450151016101710120022
:100A2000130EEECFDBFF140EEDCFDBFF130EDBCF8B
:100A300014F0140EDBCF15F00001800E1514120017
:100A4000F70EDBCF18F0F80EDBCF19F01200050E11
:100A5000DB50E66ED950130F01D9E552E750EE6E28
:100A6000ED6A12000A0EDBCF04F00B0EDBCF05F0AF
:100A70000C0EDBCF06F00D0EDBCF07F01200DBCF44
:100A8000E6FF150EDBCFE6FF050EDB50E552E7244F
:100A9000E552E7241200DB50CED8010EF36E060EAD
:100AA000F3CFDBFF1200EE50EFCFEAFFE96E16C086
:100AB000EEFF17C0EEFF18C0EEFF1200D9CFE6FF21
:100AC000DACFE6FFE1CFD9FFE2CFDAFF1200DFCFC6
:100AD000E6FFE66A30EC10F0E552E552F350120002
:100AE000E76E080EE7CFDBFF1200EECF14F0EECF7B
:100AF00015F0EFCF16F0176A1200050EDBCF14F0D9
:100B0000150EDB50D88014541200010EDBCF16F006
:100B1000020EDBCF17F0186A1200E552E5CFDAFFBC
:100B2000E7CFD9FF12000A0E14C0DBFF0B0E15C071
:100B3000DBFF1200D9500A0F2EEF06F0F36E070EFE
:100B4000F3CFDBFF1200EECF14F0EFCF15F0120061
:100B5000010EDB2A020E1200FC0EDBCFE6FFFD0EBB
:100B6000DBCFE6FF1200145E000E155AF70E14C01C
:100B7000DBFFF80E15C0DBFF14C0E9FF15C0EAFF6C
:100B80001200DA20EA6EEF2AEECFF6FF000EEF2217
:100B9000EECFF7FFEF22EECFF8FF1200040EDBCF0F
:100BA000E6FF130EDB50E552E75C9ADFDB5004DF13
:100BB000060EDB501200090EDB500A0DF350DF2445
:100BC000D00FE76E090EE7CFDBFFC6EF04F0DB5076
:100BD000F36E050EF4EF04F0F70EDBCF14F0F80E11
:100BE000DBCF15F01200DFCFE6FFD0EF04F028DFF7
:100BF000030EECDE75EF05F022EC00F0E552E55255
:100C0000E552E55200091200BDDEEE50EFCFEAFFDB
:100C1000E96E010E1200130EDB50F36E040EF4EFBA
:100C200004F0040EDB50F36E090EF4EF04F0DBCF9A
:100C3000E6FFD0EF04F0E76E050EE7CFDBFF120012
:100C40008BDFF3EF05F0DBCFE6FF86DFFCEF05F08F
:100C5000D950F90FE96EFF0EC1EF05F0E96E000EF5
:060C6000DA20EA6E12002A
:0A0C6600836A956A926A806A816AC7
:100C700093849392F198F09EF098010EC26E0E0E3E
:100C8000C16E3A0EC06E400EE66EE66A7C0EE66EEF
:100C900077EC0DF0E552E552E5529E9A9F9A9F0E31
:100CA000E66EE1EC0FF0E552580EE66E9E0EE66E33
:100CB000C5EC0FF0E552E552F194710EE66E29ECA9
:100CC0000FF0E55294949B0EE66E18EC10F0E5528E
:100CD000020EE66EE66A36EC0EF0E552E552050EBF
:100CE000E66EFDEC0FF0E5529386870EE66EE66A3F
:100CF000E66A040EE66E010EE66EDEEC0CF0146E93
:100D0000050EE15E1450840EE66E65EC0EF0E552C1
:100D1000A280D08EF28CF28E1200D9CFE6FFE1CF06
:100D2000D9FF050EE126DF6A010EDB6A020EDB6ADF
:100D3000010180A71DD0000E085D770E095901E35F
:100D40009DD1000ED8800855740E095501E396D147
:100D5000000E0A5D0E0E0B5901E390D1000ED880F3
:100D60000A550D0E0B5501E389D180838091B6D1D0
:100D7000680E0A5D100E0B5906E3CC0ED8800A559A
:100D8000100E0B5505E280918093046B056BA0D18A
:100D9000DF6A080EDF5C01E36AD1020EDF24E76E32
:100DA000010EE7CFDBFFEA6ADB34FE0BEA36E96EC1
:100DB000080EE926010EEA22EECF14F0EFCF15F06F
:100DC000540E145C010E155813E3010EEA6ADB346D
:100DD000FE0BEA36E96E080EE926010EEA22900EB5
:100DE000D880EE54010EED5403E3E66A010E25D0DF
:100DF000010EEA6ADB34FE0BEA36E96E080EE926DC
:100E0000010EEA22EECF14F0EFCF15F0A80E145C1D
:100E1000020E15581CE3010EEA6ADB34FE0BEA36BB
:100E2000E96E080EE926010EEA22E40ED880EE549F
:100E3000020EED540CE3010EE66EE66E810EE66ED8
:100E4000010EE66E59D9E552E552E552E5520A0E19
:100E5000DF24E76E020EE7CFDBFFEA6ADB34FE0B2E
:100E6000EA36E96E080EE926010EEA22EECF14F00A
:100E7000EFCF15F0540E145C010E155813E3020E5B
:100E8000EA6ADB34FE0BEA36E96E080EE926010E4B
:100E9000EA22900ED880EE54010EED5403E3E66A88
:100EA000010E25D0020EEA6ADB34FE0BEA36E96E4B
:100EB000080EE926010EEA22EECF14F0EFCF15F06E
:100EC000A80E145C020E15581CE3020EEA6ADB340D
:100ED000FE0BEA36E96E080EE926010EEA22E40E60
:100EE000D880EE54020EED540CE3010EE66EE66E71
:100EF000820EE66E010EE66EFFD8E552E552E5522F
:100F0000E552120EDF24E76E030EE7CFDBFFEA6A3D
:100F1000DB34FE0BEA36E96E080EE926010EEA2202
:100F2000EECF14F0EFCF15F0540E145C010E1558EF
:100F300013E3030EEA6ADB34FE0BEA36E96E080EB1
:100F4000E926010EEA22900ED880EE54010EED54EF
:100F500003E3E66A010E25D0030EEA6ADB34FE0BDA
:100F6000EA36E96E080EE926010EEA22EECF14F009
:100F7000EFCF15F0A80E145C020E15581CE3030EFB
:100F8000EA6ADB34FE0BEA36E96E080EE926010E4A
:100F9000EA22E40ED880EE54020EED540CE3010E6A
:100FA000E66EE66E830EE66E010EE66EA5D8E5529D
:100FB000E552E552E5521A0EDF24E76E040EE7CF44
:100FC000DBFFEA6ADB34FE0BEA36E96E080EE9263F
:100FD000010EEA22EECF14F0EFCF15F0540E145CA0
:100FE000010E155813E3040EEA6ADB34FE0BEA36F1
:100FF000E96E080EE926010EEA22900ED880EE5422
:10100000010EED5403E3E66A010E25D0040EEA6AF0
:10101000DB34FE0BEA36E96E080EE926010EEA2201
:10102000EECF14F0EFCF15F0A80E145C020E155899
:101030001CE3040EEA6ADB34FE0BEA36E96E080EA6
:10104000E926010EEA22E40ED880EE54020EED5499
:101050000CE3010EE66EE66E840EE66E010EE66EA1
:101060004BD8E552E552E552E552DF2A92D601010E
:10107000821D815D03E1841D835D2DE0870EE66E98
:10108000E66AE66A040EE66E010EE66EDEEC0CF031
:10109000146E050EE15E1450020EE66EE66AE66A14
:1010A000000EE66E010EE66EDEEC0CF0146E050E20
:1010B000E15E1450020EE66EE66AE66A020EE66E25
:1010C000010EE66EDEEC0CF0146E050EE15E1450BF
:1010D000F368F46807D0809180838087046B056B88
:1010E000F36AF46A050EE15C02E2E16AE552E16E40
:1010F000E552E7CFD9FF1200D9CFE6FFE1CFD9FF04
:10110000FB0EDBCFE6FFFD0EDBCFE9FFFE0EDBCFF4
:10111000EAFFEF50F36EFC0EDB5004E0D890F3369C
:10112000E806FCE1F350E552E710E66EFD0EDBCF7A
:10113000E9FFFE0EDBCFEAFFE552E750EF6EE55226
:10114000E7CFD9FF1200D9CFE6FFE1CFD9FFF29C5C
:10115000F29E01018C29146E320E156E0C6E14C0B5
:1011600007F07CEC10F0035001018D5D08E1010EE9
:101170000101FC6FFD6BF28CF28E000E24D0010198
:10118000FC6BFD6B01018C29146E320E156E0C6E1A
:1011900014C007F07CEC10F003C08CF1FE0EDB50A5
:1011A000E66E01010350E96EEA6AD890E936EA3644
:1011B0008E0EE926010EEA22E552E750EE6EED6A48
:1011C000F28CF28E010EE552E7CFD9FF1200D9CF93
:1011D000E6FFE1CFD9FFF29CF29E01018C518D5DBB
:1011E00008E1010E0101FE6FFF6BF28CF28E000E22
:1011F00027D00101FE6BFF6B01018D51E96EEA6A98
:10120000D890E936EA368E0EE926010EEA22EF5032
:10121000E66EFD0EDBCFE9FFFE0EDBCFEAFFE55207
:10122000E750EF6E8D29146E320E156E0C6E14C0E1
:1012300007F07CEC10F003C08DF1F28CF28E010E01
:10124000E552E7CFD9FF1200D9CFE6FFE1CFD9FFB2
:10125000E652D9CFE6FFDACFE6FFB9DFE552E55235
:10126000010804E1DFCFE6FF06D8E552E552E5527A
:10127000E7CFD9FF1200D9CFE6FFE1CFD9FFFE0EAD
:10128000DB50010A04E0010A03E106D801D02DD8A1
:10129000E552E7CFD9FF12008AEC0FF0F3CF89F1C6
:1012A000F4CF8AF1F3CFE6FFF4CFE6FFC60E146E5B
:1012B0001E0E156E166A14C0E6FFE66E16C0E6FF37
:1012C0002BEC0DF0176E050EE15E1750010180A7A3
:1012D0000BD0872B000E88230F0E875D000E8859D8
:1012E00003E38097876B886B1200832A0101045106
:1012F00005110DE0852B000E8623020E855D000E84
:10130000865907E3046B056B856B866B1200856B52
:04131000866B1200D6
:0C131400D8CFE4FFE0CFE4FFE46EDACFB6
:10132000E4FFE2CFDAFFE9CFE4FFEACFE4FFF6CF54
:10133000E4FFF7CFE4FFF5CFE4FFF3CFE4FFF4CF12
:10134000E4FFFACFE4FF00EE00F0140EE80403E33C
:10135000EECFE4FFFBD700EE14F0070EE80403E342
:10136000EECFE4FFFBD7E652D9CFE6FFE1CFD9FFBE
:10137000E6529EAA14D09E9A6BEC0FF0DF6E630EBD
:10138000DF5C04E12A0E806E01018B81700EDF5C50
:1013900002E1340E806E730EDF5C01E1806AF2A41C
:1013A00026D0F294580EE66E9E0EE66EC5EC0FF057
:1013B000E552E5520001842B000E85238623872306
:1013C000E66AA3EC08F0E552640E0001845D000EAD
:1013D0008559000E8659000E875909E3846B856B89
:1013E000866B876B010EE66EA3EC08F0E552F0A267
:1013F00017D0F092F1B80DD0490EE66E08EC0FF060
:10140000E552000EE66EE66AA9EC0FF0E552E552F1
:1014100006D08AEC0FF0F3CF89F1F4CF8AF1F1789E
:10142000E552E552E7CFD9FFE55200EE1AF0070E7C
:10143000E80403E3E5CFEDFFFBD700EE13F0140E55
:10144000E80403E3E5CFEDFFFBD7E5CFFAFFE5CFF7
:10145000F4FFE5CFF3FFE5CFF5FFE5CFF7FFE5CFED
:10146000F6FFE5CFEAFFE5CFE9FFE5CFDAFFE5508C
:10147000E5CFE0FFE5CFD8FF1000DACFE4FFE2CF01
:10148000DAFFE9CFE4FFEACFE4FFF6CFE4FFF7CFDE
:10149000E4FFF5CFE4FFF3CFE4FFF4CFE4FFFACFAE
:1014A000E4FF00EE00F0140EE80403E3EECFE4FFE7
:1014B000FBD700EE14F0070EE80403E3EECFE4FFE1
:1014C000FBD7E652E5EC0EF0F3CF02F1F4CF03F1D7
:1014D000F3500101005DF45001590CE2005101018B
:1014E000025D0101066F0101015101010359010172
:1014F000076F14D000510101025D1B6E0351010101
:1015000001551C6E1D6A1E6AFF0E1B261C22000E52
:101510001D221E221BC006F11CC007F104C1E9FFF9
:1015200005C1EAFF010ED890E936EA36E806FBE18C
:10153000080EE926010EEA2206C1EEFF07C1EDFF03
:101540000101042B000E052380A709D0876B886B4F
:10155000020E045D000E05590BE3808109D0240EB4
:10156000045D000E055904E38081230E046F056BB2
:1015700002C100F103C101F1A190E55200EE1AF0A1
:10158000070EE80403E3E5CFEDFFFBD700EE13F011
:10159000140EE80403E3E5CFEDFFFBD7E5CFFAFF38
:1015A000E5CFF4FFE5CFF3FFE5CFF5FFE5CFF7FF9C
:1015B000E5CFF6FFE5CFEAFFE5CFE9FFE5CFDAFFBC
:1015C0001100D9CFE6FFE1CFD9FF0B0EE126DF6A8C
:1015D000070EDB6A080EDB6A090EDB6A0A0EDB6A9D
:1015E00033EC06F0400EF36E030EF3CFDBFF010E7B
:1015F000F36E040EF3CFDBFF050EDB6A060EDB6A2B
:10160000D950030FE96EDACFEAFFEECFE6FFEECF57
:10161000E6FFEECFE6FFEFCFE6FFBC0E146E1E0E28
:10162000156E166A14C0E6FFE66E16C0E6FF2BECD8
:101630000DF0176E070EE15E1750030EDB6A350ED4
:10164000F36E040EF3CFDBFF0C0EF36E050EF3CF3B
:10165000DBFF060EDB6A040EE66EE66AAB0E146E66
:101660001E0E156E166A14C0E6FFE66E16C0E6FF83
:101670002BEC0DF0176E050EE15E1750D9CF14F06C
:10168000DACF15F0010ED9CFDBFF020EDACFDBFF88
:10169000D950030FE96EDACFEAFFEECFE6FFEECFC7
:1016A000E6FFEECFE6FFEFCFE6FFBC0E146E1E0E98
:1016B000156E166A14C0E6FFE66E16C0E6FF2BEC48
:1016C0000DF0176E070EE15E1750020E816E010ECF
:1016D000E66EE66AE66AE66AE1D8E552E552E55268
:1016E000E552816A24EC09F001018BA12BD08B918A
:1016F000870EE66EE66AE66A040EE66E010EE66E98
:10170000DEEC0CF0146E050EE15E1450020EE66E77
:10171000E66AE66A000EE66E010EE66EDEEC0CF09E
:10172000146E050EE15E1450020EE66EE66AE66A7D
:10173000020EE66E010EE66EDEEC0CF0146E050E87
:10174000E15E1450010180A102D08DEC06F0010190
:1017500080A34ED08351680A27E06A0A1FE0200A5E
:101760001BE0E00A2EE0220A14E0480A2CE12A0ECF
:10177000806EA20E146E1E0E156E166A14C0E6FF61
:10178000E66E16C0E6FF2BEC0DF0E552E552E55291
:101790002DD0340E806E2AD02C0E01D0320E806EE9
:1017A000400EE66E010E05D0320E806E800EE66EA3
:1017B000020EE66EE66AE66A24D8E552E552E55284
:1017C000E552806A13D08351E66EE66A940E146E79
:1017D0001E0E156E166A14C0E6FFE66E16C0E6FF12
:1017E0002BEC0DF0176E050EE15E17500101809392
:1017F00080C0E6FF81C0E6FF36EC0EF0E552E55210
:1018000071D7D9CFE6FFE1CFD9FF060EE126190E39
:10181000F36E040EF3CFDBFF050EDB6ADE6ADE6AD1
:10182000DE6ADD6ADD52DD52FB0EDBCF14F0FC0E0A
:10183000DBCF15F0FD0EDBCF16F0FE0EDBCF17F081
:10184000D9CFE9FFDACFEAFF030EEB501718E8AE65
:1018500002D0173408D01450EE5C1550EE581650D4
:10186000EE581750EE5810E2040EDBCFE6FF6EEC98
:1018700010F0E552D9CFE9FFDACFEAFFEE2A000EE9
:10188000EE22EE22EE22D0D7060EE15C02E2E16A01
:10189000E552E16EE552E7CFD9FF1200D9CFE6FF5E
:1018A000E1CFD9FF040EE126DE6ADE6ADE6ADD6A78
:1018B000DD52DD52FB0EDBCF14F0FC0EDBCF15F05A
:1018C000FD0EDBCF16F0FE0EDBCF17F0D9CFE9FF10
:1018D000DACFEAFF030EEB501718E8AE02D0173448
:1018E00008D01450EE5C1550EE581650EE581750B4
:1018F000EE580BE20000D9CFE9FFDACFEAFFEE2A7B
:10190000000EEE22EE22EE22D5D7040EE15C02E2BA
:0E191000E16AE552E16EE552E7CFD9FF120021
:02191E001E0E9B
:10192000F66E000EF76E000EF86E01010900F5501C
:10193000F76F0900F550F86F03E1F76701D03DD06C
:101940000900F550F26F0900F550F36F0900F550EA
:10195000F46F09000900F550E96E0900F550EA6ED0
:10196000090009000900F550F56F0900F550F66F00
:1019700009000900F6CFF9F1F7CFFAF1F8CFFBF142
:10198000F2C1F6FFF3C1F7FFF4C1F8FF0101F5530F
:1019900002E1F65307E00900F550EE6EF507F8E2B4
:1019A000F607F9D7F9C1F6FFFAC1F7FFFBC1F8FF57
:0C19B0000101F707000EF85BBFD7120022
:0419BC00FE0EE3CF69
:1019C000E9FFFF0EE3CFEAFFE9CFF3FFEACFF4FF31
:1019D000FB0EE35003E1FC0EE35009E0FB0EE306CF
:1019E00002E2FC0EE306FD0EE350EE6EF1D71200AC
:1019F000FE0EE3CFE9FFFF0EE3CFEAFFF36AF46ADE
:101A0000EE5203E0F34AF42AFBD71200FF0EE3CFB5
:101A1000F8FFE552FF0EE3CFF7FFE552FF0EE3CFED
:101A2000F6FFE552E66AE66AE66A0900F55209E061
:101A3000FD0EE32A05E1FE0EE32A02E1FF0EE32A92
:101A4000F4D7FD0EE3CF05F0FE0EE3CF06F0FF0E58
:061A5000E3CF07F01200D5
:0A1A5600D9CFE6FFDACFE6FFE1CFBB
:101A6000D9FFE2CFDAFFE652E652E652E652D9500B
:101A7000FB0F146EFF0EDA20156E14C0DEFFDD6E54
:101A8000DECFE6FFDDCFE6FFFB0EDBCFE6FFFC0E91
:101A9000DBCFE6FFFD0EDBCFE6FF88C0E6FF89C0A7
:101AA000E6FF38EC00F0146E070EE15C02E2E16A3A
:101AB000E552E16E1450020EF3CFDBFF030EF4CFBC
:101AC000DBFF020EDBCF14F0030EDBCF15F014C0EA
:101AD000F3FF15C0F4FF040EE15C02E2E16AE55297
:0E1AE000E16EE552E5CFDAFFE7CFD9FF120045
:021AEE00D9CF4E
:101AF000E6FFDACFE6FFE1CFD9FFE2CFDAFFAC6A4B
:101B0000AB6AFD0EDBB0AC88DBA202D0AC8CAB8C38
:101B1000DBB4AC8EDBA602D0AB8801D0AB8ADBB8DD
:101B2000AC849E98DBBAAB86DBAC02D09D8A01D038
:101B30009D9A9E9ADBAE02D09D8801D09D98FB0EA7
:101B4000DB50AF6EFB0EFC0EDBCF15F015C014F0B2
:101B5000156A1450B06EAC8AAB8E949C948EAC50C7
:101B6000100B04E0AC50800B01E1948CE552E5CF02
:081B7000DAFFE7CFD9FF1200F4
:081B7800D9CFE6FFDACFE6FF4A
:101B8000E1CFD9FFE2CFDAFFFB0EDBCF14F0FC0E82
:101B9000DBCF15F00001800E15141AE1FB0EDBCF30
:101BA000E9FFFC0EDBCFEAFFEECFF3FFEDCFF4FF52
:101BB000EE2A000EEF22F3CFE9FFF4CFEAFFFD0E8D
:101BC000DBCFEFFFEF50156AF36E15C0F4FF10D0B6
:101BD000FB0EDB50FE0806E1FD0EDBCFE6FF60ECFE
:101BE00010F005D0FD0EDBCFE6FF03EC00F0E55270
:0C1BF000E552E5CFDAFFE7CFD9FF120085
:041BFC000450090286
:101C0000F3CF00F0F4CF01F00A02F3500126000EEA
:101C1000F420026E04500B02F3500226000EF42052
:101C2000036E04500C02F350032605500902F350D2
:101C30000126F4500222000E032205500A02F3503E
:101C40000226F450032205500B02F35003260650DF
:101C50000902F3500226F450032206500A02F35000
:0C1C6000032607500902F350032612006F
:041C6C00D9CFE6FFE7
:101C7000DACFE6FFE1CFD9FFE2CFDAFFE652E65254
:101C8000FC0EDBCF14F0FD0EDBCF15F0060ED89066
:101C900014361536E804FBE114C0DEFF15C0DDFF85
:101CA000010EDB50BE6EDF50E840E8403F0B300BCA
:101CB000146ECF0EBD141410BD6EE552E552E55200
:0A1CC000E5CFDAFFE7CFD9FF1200ED
:061CCA00D9CFE6FFDACFDE
:101CD000E6FFE1CFD9FFE2CFDAFFE652E652FD0E92
:101CE000DB500F0BBA6E050EF66EF76A300EF86E0B
:101CF0000800F550010B03E0010EDB6802D0010E75
:101D0000DB6AFD0EDBAE02D0A190A080010EDB509D
:101D100002E0948201D09386E552E552E552E5CF88
:081D2000DAFFE7CFD9FF120042
:081D280007C013F006C012F021
:101D300006500B02F4CF05F0F3CF04F007500C026D
:101D4000F4CF07F0F3CF06F00B02F3500526F45062
:101D50000622E86A072212500C02F3500526F450BE
:101D60000622E86A07220CAEBAEF0EF01250065EA9
:101D70001350075A13AE000C0B50065E0C50075A56
:021D8000000C55
:0E1D8200036A026A016A006A200EE76ED890BA
:101D90000436053606360736003601360236033677
:101DA0000950005C0A5001580B5002580C5003585F
:101DB00009E30950005E0A50015A0B50025A0C50B8
:0A1DC000035A042AE72EE4D71200AC
:061DCA00D9CFE6FFDACFDD
:101DD000E6FFE1CFD9FFE2CFDAFFE652E65200019B
:101DE0008B93A1B08B83BB50DF6E010EBCCFDBFFAA
:101DF000DECF14F0DDCF15F014C0F3FF15C0F4FFF3
:101E0000E552E552E552E5CFDAFFE7CFD9FF120000
:101E1000D9CFE6FFDACFE6FFE1CFD9FFE2CFDAFF95
:101E2000FD0EDB50360BB16EB36AB26AA192FD0EA5
:101E3000DBAE02D0A08201D0A092DBA002D0B18E96
:101E400001D0B19EB180E552E5CFDAFFE7CFD9FFEF
:021E500012007E
:0E1E5200D9CFE6FFDACFE6FFE1CFD9FFE2CF2E
:101E6000DAFFFD0EDB507E0BCD6EFD0EDBAC02D03B
:101E7000CD8E01D0CD9ECF6ACE6A9E90DBAE02D0D1
:101E80009D8001D09D90CD80E552E5CFDAFFE7CF70
:041E9000D9FF120064
:0C1E9400636F6D6D616E64203D2025645D
:101EA0000A00464F52574F52440A0073697A652020
:101EB0006F66206262203D2025640A002062622055
:101EC0003D2025640A0054335F76616C7565203DC2
:051ED0002025640A005A
:0A1ED600D9CFE6FFDACFE6FFE1CF37
:101EE000D9FFE2CFDAFFE652F20E00018A17ABAC5F
:101EF00003D08A91ABB08A81ABB48A85ABB28A87B2
:101F0000AE50DF6EDF50E552E552E5CFDAFFE7CFA6
:041F1000D9FF1200E3
:0C1F1400D9CFE6FFDACFE6FFE1CFD9FF1E
:101F2000E2CFDAFFE652E652B250DF6E010EB3CFD7
:101F3000DBFFDECF14F0DDCF15F014C0F3FF15C0CA
:101F4000F4FFE552E552E552E5CFDAFFE7CFD9FFDE
:021F500012007D
:0E1F5200D9CFE6FFDACFE6FFE1CFD9FFE2CF2D
:101F6000DAFFE652E652FC0EDBCFDEFFDBCFDDFF11
:101F7000010EDB50B36EDF50B26EE552E552E55212
:0A1F8000E5CFDAFFE7CFD9FF12002A
:061F8A00D9CFE6FFDACF1B
:101F9000E6FFE1CFD9FFE2CFDAFFE652E652FC0ED0
:101FA000DBCFDEFFDBCFDDFF010EDB50D76EDF5076
:101FB000D66EE552E552E552E5CFDAFFE7CFD9FF1D
:021FC00012000D
:0E1FC200D9CFE6FFDACFE6FFE1CFD9FFE2CFBD
:101FD000DAFFFD0EDB507F0BD56ED76AD66AF2941E
:101FE000FD0EDBAE02D0F28A01D0F29AD58EE55218
:0A1FF000E5CFDAFFE7CFD9FF1200BA
:061FFA00D9CFE6FFDACFAB
:10200000E6FFE1CFD9FFE2CFDAFFFD0EDB50FB0B9D
:10201000CA6ECC6A9E92FD0EDBAE02D09D8201D0CC
:102020009D92CA84E552E5CFDAFFE7CFD9FF1200CF
:10203000D9CFE6FFDACFE6FFE1CFD9FFE2CFDAFF73
:102040000C0EBD129494CA94FD0EDB50CB6ECA8464
:10205000E552E5CFDAFFE7CFD9FF120094941200E2
:10206000F36AF46AFF0EE124E96EFF0EE220EA6EE5
:10207000ED6607D02F0EEF6404D03A0EEF6001D06A
:04208000F32A12002D
:0C208400000EF36E00EE00F0060E01D816
:102090001200EA6002D0EE6AFCD7F350E960120049
:0420A000EE6AFCD711
:0C20A40015EE00F025EE00F0F86A0F9C2D
:1020B0008FEC0CF007EC00F0E1EC0AF0FBD712001B
:1020C000FF0EE350ACBA04D0AF6AAB8EAC8A949CDE
:0C20D000ACA2FED7AD6EF36EF46A1200F5
:0420DC00FF0EE350C0
:1020E0001F6E1B0E00D001D0200EE76EE72EFED72C
:0820F0001F2EFAD700D01200E8
:0820F800036A080EE76ED890A0
:10210000073603360C50035C02E3036E072AE72E02
:04211000F7D71200EB
:0C211400303132333435363738396162EF
:05212000636465660028
:082125000000000000000000B2
:020000040030CA
:0100010002FC
:0100020010ED
:010003001EDE
:010005008278
:010006008178
:00000001FF
